:100000000C9480020C9451140C942A140C942428FF
:100010000C9424280C9424280C94A8020C94A80274
:100020000C94A8020C94A8020C94A8020C94A802A8
:100030000C94A8020C94A8020C94A8020C94A80298
:100040000C94E0130C94A8020C94D3120C94AD12EF
:100050000C94A8020C94A8020C94A8020C94A80278
:100060000C949E280C94A8026368616E6765643ADC
:10007000004368616E67652070617373772E00447A
:100080003030370070617373772E20646F65736E44
:100090002774206D61746368004368616E67652032
:1000A00070617373772E006368616E6765643A00F0
:1000B0004368616E67652070617373772E0044300A
:1000C000303900436F6E6669726D20706173733AE8
:1000D00000303039004368616E676520706173736A
:1000E000772E00443030380057726F6E6720706191
:1000F0007373773A004368616E676520706173734C
:10010000772E00496E73657274206E65772070617A
:100110007373773A00303038004368616E6765204A
:1001200070617373772E004430303600496E73650A
:100130007274206E616D653A00303037004368613B
:100140006E67652070617373772E004D3030360016
:10015000496E73657274206F6C642070617373777D
:100160002E3A00303036004368616E67652070615A
:100170007373772E004D303035004368616E6765CC
:10018000206E616D653A00303036004368616E67FD
:10019000652070617373772E3A00303035005365F7
:1001A000637572697479004D3030340044303132F7
:1001B00000443031310044303130004430303500BB
:1001C0004430303400443030330044303032004466
:1001D0003039390044303938004430393600443041
:1001E000393500443039340044303031003039344E
:1001F0000046696E6454696D652E3A0030393500E9
:100200004F666653657454656D703A003031320044
:1002100046696E642070686F6E653A003031310057
:100220004E616D653A0030313000416464723A00CD
:100230003039360041706E3A003030350050495246
:10024000207374617475733A003030340054656DF6
:10025000704D61783A003030330054656D704F4E08
:100260003A0030303200507265632E3A003039382F
:10027000003250686F6E653A003039390050682E90
:10028000416C7465726E2E3A003030310050686FE8
:100290006E653A00436F6E66696775726174696F67
:1002A0006E004D30303100416C61726D204F46461A
:1002B000004330303300416C61726D204F4E00437B
:1002C0003030320023300000000000250028002BD1
:1002D000002B505357443A003B450041542B434EAA
:1002E0004D493D322C322C302C302C300D004154F5
:1002F0002B434D47463D310D004154202B204950A2
:10030000524558203D2031393230300D00580046DA
:10031000696E6420616374697661746564007777DF
:10032000772E676F6F676C652E636F6D2F6D6170D1
:10033000732F7365617263682F3F6170693D312669
:1003400071756572793D002B43495047534D4C4FB1
:10035000433A00506F00536200416200416F005306
:10036000700041630041542B494E49540041542BC5
:10037000434D4F44453D300041542B524F4C453D79
:10038000310041542B494E49540041542B434D4FA9
:1003900044453D300041542B524F4C453D310054B3
:1003A0000056000000000023002600290004040479
:1003B000040404040402020202020203030303030E
:1003C00003010204081020408001020408102001EB
:1003D00002040810200000000800020100000304CD
:1003E000070000000000000000500041542B435360
:1003F00051004D0041542B434D47463D313B004198
:10040000540041542B494E514D3D302C352C36353E
:100410000041542B494E510041542B494E514D3D02
:10042000302C352C36350041542B524F4C453D3045
:100430000041542B524F4C453D3000000000002439
:100440000027002A004D00440043003B00494E466F
:1004500000544954004D4553003B005B7C7C7C7C40
:100460005D2B005B7C7C7C205D2B005B7C7C2020FA
:100470005D2B005B7C2020205D2B005B202020205A
:100480005D2B005369676E616C3A00576861747A3E
:1004900055703A00426174742E6C6576656C3A0052
:1004A00054656D702E3A0030303300416C61726DCE
:1004B000204F46460030303200416C61726D204F53
:1004C0006E003030340053656375726974790030A2
:1004D000303100436F6E66696775726174696F6E63
:1004E00000416C61726D204F464600416C61726D37
:1004F000204F4E005570646174656400C033DD3474
:1005000011241FBECFEFD8E0DEBFCDBF24E0A4E6AC
:10051000B2E001C01D92AE3EB207E1F712E0A0E0EA
:10052000B1E0E6E5F5E702C005900D92A436B1070B
:10053000D9F712E0CFE7D2E004C02197FE010E9474
:100540003638CE37D107C9F70E94632A0C949E3AF9
:100550000C940000EF92FF920F931F93CF93DF93C1
:10056000CDB7DEB7AF970FB6F894DEBF0FBECDBFE5
:1005700081E090E00E943C387C0160EA71E0CE01AD
:1005800042960E94CF1C8091CC029091CD020E9495
:10059000DE14892B11F40C945F11E091CC02F091E0
:1005A000CD02608171816115710511F462817381E1
:1005B000CE0101960E942A1DBE016F5F7F4FCE01C2
:1005C00042960E94521CCE0101960E948B1C64EC44
:1005D00072E0CE0101960E94BD1CBE016F5F7F4F8D
:1005E000CE0142960E94131B8C01CE0101960E94FF
:1005F0008B1C17FF0E94F9216FEB72E0CE01019670
:100600000E94BD1CBE016F5F7F4FCE0142960E94CB
:10061000131B8C01CE0101960E948B1C17FD42C05A
:1006200081E08093D0021092D102109207011092C3
:1006300008011092090110920A0166EB72E0CE01E6
:1006400001960E94BD1C40E050E0BE016F5F7F4FED
:10065000CE0148960E942F21BE01685E7F4F809197
:10066000CC029091CD020E947F17CE0148960E9445
:100670008B1CCE0101960E948B1C68ED72E0CE01AE
:1006800001960E94BD1CBE016F5F7F4F8091CC021E
:100690009091CD020E947F17CE0101960E948B1C83
:1006A0000E94F92161EB72E0CE0101960E94BD1C0F
:1006B000BE016F5F7F4FCE0142960E94131B8C01DB
:1006C000CE0101960E948B1C17FD37C01092D002FC
:1006D00067EA72E0CE0101960E94BD1C40E050E046
:1006E000BE016F5F7F4FCE0148960E942F21BE0151
:1006F000685E7F4F8091CC029091CD020E947F175F
:10070000CE0148960E948B1CCE0101960E948B1C44
:1007100068ED72E0CE0101960E94BD1CBE016F5FC4
:100720007F4F8091CC029091CD020E947F17CE0125
:1007300001960E948B1C0E94F92162EA72E0CE01B0
:1007400001960E94BD1CBE016F5F7F4FCE01429695
:100750000E94131B8C01CE0101960E948B1C17FD79
:1007600097C48FE090E00E943C388C0164E972E00D
:10077000CE0101960E94BD1C4FE050E0B801CE01B1
:1007800001960E943A1ACE0101960E948B1CB80174
:10079000CE0101960E94CF1C41E050E0BE016F5F88
:1007A0007F4FCE0148960E942F21BE01685E7F4F89
:1007B0008091CC029091CD020E947F17CE01489685
:1007C0000E948B1CCE0101960E948B1C6DE872E08A
:1007D000CE0101960E94BD1C4FE050E0B801CE0151
:1007E00001960E943A1ACE0101960E948B1C69E87C
:1007F00072E0CE014E960E94BD1CB801CE0101965A
:100800000E94CF1C6DEB73E0CE0101960E94E91BA4
:10081000BC01CE0148960E94C61C9E01225E3F4F3D
:1008200041E050E0BE01685E7F4FCE0184960E9499
:100830008E21BE016C5D7F4F8091CC029091CD02E4
:100840000E947F17CE0184960E948B1CCE01489691
:100850000E948B1CCE0101960E948B1CCE014E96ED
:100860000E948B1C6DE772E0CE0101960E94BD1CB8
:100870004FE050E0B801CE0101960E943A1ACE0135
:1008800001960E948B1C69E772E0CE014E960E9491
:10089000BD1CB801CE0101960E94CF1C67EB73E02E
:1008A000CE0101960E94E91BBC01CE0148960E9430
:1008B000C61C9E01225E3F4F41E050E0BE01685ED3
:1008C0007F4FCE0184960E948E21BE016C5D7F4FCA
:1008D0008091CC029091CD020E947F17CE01849628
:1008E0000E948B1CCE0148960E948B1CCE01019663
:1008F0000E948B1CCE014E960E948B1C61E772E019
:10090000CE0101960E94BD1C4FE050E0B801CE011F
:1009100001960E943A1ACE0101960E948B1C6DE648
:1009200072E0CE0184960E94BD1C4AE06091A9024B
:10093000CE0148960E94901CB801CE0101960E94FB
:10094000CF1CBE01685E7F4FCE0101960E94E91B5D
:10095000BC01CE014E960E94C61C9E012C5D3F4FED
:1009600041E050E0BE01625E7F4FCE018A960E9458
:100970008E21BE01665D7F4F8091CC029091CD02A9
:100980000E947F17CE018A960E948B1CCE014E9644
:100990000E948B1CCE0101960E948B1CCE014896B2
:1009A0000E948B1CCE0184960E948B1C66E672E02E
:1009B000CE0101960E94BD1C4FE050E0B801CE016F
:1009C00001960E943A1ACE0101960E948B1C62E6A3
:1009D00072E0CE0184960E94BD1C4AE06091CF0275
:1009E000CE0148960E94901CB801CE0101960E944B
:1009F000CF1CBE01685E7F4FCE0101960E94E91BAD
:100A0000BC01CE014E960E94C61C9E012C5D3F4F3C
:100A100041E050E0BE01625E7F4FCE018A960E94A7
:100A20008E21BE01665D7F4F8091CC029091CD02F8
:100A30000E947F17CE018A960E948B1CCE014E9693
:100A40000E948B1CCE0101960E948B1CCE01489601
:100A50000E948B1CCE0184960E948B1C6AE572E07A
:100A6000CE0101960E94BD1C4FE050E0B801CE01BE
:100A700001960E943A1ACE0101960E948B1C66E5EF
:100A800072E0CE0184960E94BD1C4AE06091C302D0
:100A9000CE0148960E94901CB801CE0101960E949A
:100AA000CF1CBE01685E7F4FCE0101960E94E91BFC
:100AB000BC01CE014E960E94C61C9E012C5D3F4F8C
:100AC00041E050E0BE01625E7F4FCE018A960E94F7
:100AD0008E21BE01665D7F4F8091CC029091CD0248
:100AE0000E947F17CE018A960E948B1CCE014E96E3
:100AF0000E948B1CCE0101960E948B1CCE01489651
:100B00000E948B1CCE0184960E948B1C6DE472E0C7
:100B1000CE0101960E94BD1C4FE050E0B801CE010D
:100B200001960E943A1ACE0101960E948B1C69E43C
:100B300072E0CE0184960E94BD1C4AE06091C20220
:100B4000CE0148960E94901CB801CE0101960E94E9
:100B5000CF1CBE01685E7F4FCE0101960E94E91B4B
:100B6000BC01CE014E960E94C61C9E012C5D3F4FDB
:100B700041E050E0BE01625E7F4FCE018A960E9446
:100B80008E21BE01665D7F4F8091CC029091CD0297
:100B90000E947F17CE018A960E948B1CCE014E9632
:100BA0000E948B1CCE0101960E948B1CCE014896A0
:100BB0000E948B1CCE0184960E948B1C6DE372E018
:100BC000CE0101960E94BD1C4FE050E0B801CE015D
:100BD00001960E943A1ACE0101960E948B1C69E38D
:100BE00072E0CE0184960E94BD1C4AE06091C90269
:100BF000CE0148960E94901CB801CE0101960E9439
:100C0000CF1CBE01685E7F4FCE0101960E94E91B9A
:100C1000BC01CE014E960E94C61C9E012C5D3F4F2A
:100C200041E050E0BE01625E7F4FCE018A960E9495
:100C30008E21BE01665D7F4F8091CC029091CD02E6
:100C40000E947F17CE018A960E948B1CCE014E9681
:100C50000E948B1CCE0101960E948B1CCE014896EF
:100C60000E948B1CCE0184960E948B1C64E372E070
:100C7000CE0101960E94BD1C4FE050E0B801CE01AC
:100C800001960E943A1ACE0101960E948B1C60E3E5
:100C900072E0CE014E960E94BD1CB801CE010196B5
:100CA0000E94CF1C69E973E0CE0101960E94E91B06
:100CB000BC01CE0148960E94C61C9E01225E3F4F99
:100CC00041E050E0BE01685E7F4FCE0184960E94F5
:100CD0008E21BE016C5D7F4F8091CC029091CD0240
:100CE0000E947F17CE0184960E948B1CCE014896ED
:100CF0000E948B1CCE0101960E948B1CCE014E9649
:100D00000E948B1C6AE272E0CE0101960E94BD1C1B
:100D10004FE050E0B801CE0101960E943A1ACE0190
:100D200001960E948B1C66E272E0CE014E960E94F4
:100D3000BD1CB801CE0101960E94CF1C65EA73E08C
:100D4000CE0101960E94E91BBC01CE0148960E948B
:100D5000C61C9E01225E3F4F41E050E0BE01685E2E
:100D60007F4FCE0184960E948E21BE016C5D7F4F25
:100D70008091CC029091CD020E947F17CE01849683
:100D80000E948B1CCE0148960E948B1CCE010196BE
:100D90000E948B1CCE014E960E948B1C60E272E07A
:100DA000CE0101960E94BD1C4FE050E0B801CE017B
:100DB00001960E943A1ACE0101960E948B1C6CE1AA
:100DC00072E0CE014E960E94BD1CB801CE01019684
:100DD0000E94CF1C6FE973E0CE0101960E94E91BCF
:100DE000BC01CE0148960E94C61C9E01225E3F4F68
:100DF00041E050E0BE01685E7F4FCE0184960E94C4
:100E00008E21BE016C5D7F4F8091CC029091CD020E
:100E10000E947F17CE0184960E948B1CCE014896BB
:100E20000E948B1CCE0101960E948B1CCE014E9617
:100E30000E948B1C60E172E0CE0101960E94BD1CF5
:100E40004FE050E0B801CE0101960E943A1ACE015F
:100E500001960E948B1C6CE072E0CE0184960E9489
:100E6000BD1C4AE06091CE02CE0148960E94901CC3
:100E7000B801CE0101960E94CF1CBE01685E7F4F73
:100E8000CE0101960E94E91BBC01CE014E960E9444
:100E9000C61C9E012C5D3F4F41E050E0BE01625EEA
:100EA0007F4FCE018A960E948E21BE01665D7F4FE4
:100EB0008091CC029091CD020E947F17CE018A963C
:100EC0000E948B1CCE014E960E948B1CCE01019677
:100ED0000E948B1CCE0148960E948B1CCE018496EA
:100EE0000E948B1C60E072E0CE0101960E94BD1C46
:100EF0004FE050E0B801CE0101960E943A1ACE01AF
:100F000001960E948B1C6CEF71E0CE0184960E94CA
:100F1000BD1C8091000190910101198E188E1B8ECD
:100F20001A8E1D8E1C8E4AE0BE016F5F7F4F0E949D
:100F30007E35BE016F5F7F4FCE0148960E94241C14
:100F4000B801CE0101960E94CF1CBE01685E7F4FA2
:100F5000CE0101960E94E91BBC01CE014E960E9473
:100F6000C61C9E012C5D3F4F41E050E0BE01625E19
:100F70007F4FCE018A960E948E21BE01665D7F4F13
:100F80008091CC029091CD020E947F17CE018A966B
:100F90000E948B1CCE014E960E948B1CCE010196A6
:100FA0000E948B1CCE0148960E948B1CCE01849619
:100FB0000E948B1C61EF71E0CE0101960E94BD1C66
:100FC0004FE050E0B801CE0101960E943A1ACE01DE
:100FD00001960E948B1C6DEE71E0CE0184960E94FA
:100FE000BD1C4AE060910601CE0148960E94901C0B
:100FF000B801CE0101960E94CF1CBE01685E7F4FF2
:10100000CE0101960E94E91BBC01CE014E960E94C2
:10101000C61C9E012C5D3F4F41E050E0BE01625E68
:101020007F4FCE018A960E948E21BE01665D7F4F62
:101030008091CC029091CD020E947F17CE018A96BA
:101040000E948B1CCE014E960E948B1CCE010196F5
:101050000E948B1CCE0148960E948B1CCE01849668
:101060000E948B1C68ED72E0CE0101960E94BD1CAF
:10107000BE016F5F7F4F8091CC029091CD020E94A4
:101080007F17CE0101960E948B1CC8010E94D138A7
:1010900068EE71E0CE0101960E94BD1CBE016F5F3B
:1010A0007F4FCE0142960E94131B8C01CE01019608
:1010B0000E948B1C17FD43C0BE016E5E7F4FCE01A8
:1010C00048960E94C61C21E030E04BE3BE01685EFA
:1010D0007F4FCE0101960E94D324CE0148960E94F4
:1010E0008B1CBE016F5F7F4FCE0148960E94C61CCD
:1010F000CE0148960E94F829182FCE0148960E94EA
:101100008B1C1123B1F04BE050E067EB72E0CE0195
:1011100001960E94171A47EB52E061E070E0C701A8
:101120000E94F520BE016F5F7F4F8DEB93E00E9420
:101130003B1C0E941D2ACE0101960E948B1C63EE6F
:1011400071E0CE0101960E94BD1CBE016F5F7F4F12
:10115000CE0142960E94131B8C01CE0101960E9483
:101160008B1C17FD42C0BE016E5E7F4FCE014896BC
:101170000E94C61C21E030E04BE3BE01685E7F4F59
:10118000CE0101960E94D324CE0148960E948B1C6A
:10119000BE016F5F7F4FCE0148960E94C61CCE01F4
:1011A00048960E94F829182FCE0148960E948B1C61
:1011B0001123A9F04DE050E064E672E0CE01019603
:1011C0000E94171A44E652E06EE570E0C7010E94E3
:1011D000F52084E692E00E940135809306010E948A
:1011E0001D2ACE0101960E948B1C6EED71E0CE018E
:1011F00001960E94BD1CBE016F5F7F4FCE014296DB
:101200000E94131B8C01CE0101960E948B1C17FDBE
:1012100044C0BE016E5E7F4FCE0148960E94C61C40
:1012200021E030E04BE3BE01685E7F4FCE010196C6
:101230000E94D324CE0148960E948B1CBE016F5F92
:101240007F4FCE0148960E94C61CCE0148960E9450
:10125000F829182FCE0148960E948B1C1123B9F053
:1012600045E050E066E672E0CE0101960E94171A52
:1012700046E652E06CE570E0C7010E94F52086E684
:1012800092E00E94013590930101809300010E9439
:101290001D2ACE0101960E948B1C69ED71E0CE01E2
:1012A00001960E94BD1CBE016F5F7F4FCE0142962A
:1012B0000E94131B8C01CE0101960E948B1C17FD0E
:1012C00031C0BE016E5E7F4FCE0148960E94C61CA3
:1012D00021E030E04BE3BE01685E7F4FCE01019616
:1012E0000E94D324CE0148960E948B1C49E150E015
:1012F0006BE672E0CE0101960E94171A4BE652E0AF
:1013000063E470E0C7010E94F520BE016F5F7F4F6C
:1013100089E993E00E943B1C0E941D2ACE010196A0
:101320000E948B1C64ED71E0CE0101960E94BD1CF1
:10133000BE016F5F7F4FCE0142960E94131B8C014E
:10134000CE0101960E948B1C17FD42C0BE016E5E4D
:101350007F4FCE0148960E94C61C21E030E04BE34F
:10136000BE01685E7F4FCE0101960E94D324CE015C
:1013700048960E948B1CBE016F5F7F4FCE0148963E
:101380000E94C61CCE0148960E94F829182FCE0153
:1013900048960E948B1C1123A9F042E050E06AEAB3
:1013A00072E0CE0101960E94171A4AEA52E064E305
:1013B00070E0C7010E94F5208AEA92E00E940135A0
:1013C0008093A9020E941D2ACE0101960E948B1CC7
:1013D0006FEC71E0CE0101960E94BD1CBE016F5FF3
:1013E0007F4FCE0142960E94131B8C01CE010196C5
:1013F0000E948B1C17FD43C0BE016E5E7F4FCE0165
:1014000048960E94C61C21E030E04BE3BE01685EB6
:101410007F4FCE0101960E94D324CE0148960E94B0
:101420008B1CBE016F5F7F4FCE0148960E94C61C89
:10143000CE0148960E94F829182FCE0148960E94A6
:101440008B1C1123B1F04BE050E06CEA72E0CE014E
:1014500001960E94171A4CEA52E066E370E0C70159
:101460000E94F520BE016F5F7F4F87EB93E00E94E3
:101470003B1C0E941D2ACE0101960E948B1C6AEC27
:1014800071E0CE0101960E94BD1CBE016F5F7F4FCF
:10149000CE0142960E94131B8C01CE0101960E9440
:1014A0008B1C17FD58C0BE016E5E7F4FCE01489663
:1014B0000E94C61C21E030E04BE3BE01685E7F4F16
:1014C000CE0101960E94D324CE0148960E948B1C27
:1014D000BE016F5F7F4FCE0148960E94C61CCE01B1
:1014E00048960E94F829182FCE0148960E948B1C1E
:1014F000112359F142E050E063EA72E0CE01019617
:101500000E94171A43EA52E06CE070E0C7010E94A3
:10151000F52083EA92E00E9401358093CF0244EFE8
:1015200051E0849F9001859F300D1124C9018053A3
:10153000984F092E000CAA0BBB0B8093D2029093FC
:10154000D302A093D402B093D5020E941D2ACE01EB
:1015500001960E948B1C65EC71E0CE0101960E9401
:10156000BD1CBE016F5F7F4FCE0142960E94131BD0
:101570008C01CE0101960E948B1C17FD42C0BE015A
:101580006E5E7F4FCE0148960E94C61C21E030E07F
:101590004BE3BE01685E7F4FCE0101960E94D324CB
:1015A000CE0148960E948B1CBE016F5F7F4FCE011B
:1015B00048960E94C61CCE0148960E94F829182F12
:1015C000CE0148960E948B1C1123A9F042E050E006
:1015D00067EA72E0CE0101960E94171A47EA52E0CC
:1015E0006EE070E0C7010E94F52087EA92E00E9459
:1015F00001358093C3020E941D2ACE0101960E94EC
:101600008B1C60EC71E0CE0101960E94BD1CBE01F6
:101610006F5F7F4FCE0142960E94131B8C01CE015B
:1016200001960E948B1C17FD42C0BE016E5E7F4F6B
:10163000CE0148960E94C61C21E030E04BE3BE017B
:10164000685E7F4FCE0101960E94D324CE0148965A
:101650000E948B1CBE016F5F7F4FCE0148960E9497
:10166000C61CCE0148960E94F829182FCE01489634
:101670000E948B1C1123A9F043E050E060EA72E065
:10168000CE0101960E94171A40EA52E060E170E034
:10169000C7010E94F52080EA92E00E940135809304
:1016A000C2020E941D2ACE0101960E948B1C6BEB88
:1016B00071E0CE0101960E94BD1CBE016F5F7F4F9D
:1016C000CE0142960E94131B8C01CE0101960E940E
:1016D0008B1C17FD44C0BE016E5E7F4FCE01489645
:1016E0000E94C61C21E030E04BE3BE01685E7F4FE4
:1016F000CE0101960E94D324CE0148960E948B1CF5
:10170000BE016F5F7F4FCE0148960E94C61CCE017E
:1017100048960E94F829182FCE0148960E948B1CEB
:101720001123B9F042E050E0BE01685E7F4FCE0168
:1017300001960E94171AAE01485E5F4F63E170E0A8
:10174000C7010E94F520CE0148960E940135809382
:10175000C9020E941D2ACE0101960E948B1C66EBD5
:1017600071E0CE0101960E94BD1CBE016F5F7F4FEC
:10177000CE0142960E94131B8C01CE0101960E945D
:101780008B1C17FD43C0BE016E5E7F4FCE01489695
:101790000E94C61C21E030E04BE3BE01685E7F4F33
:1017A000CE0101960E94D324CE0148960E948B1C44
:1017B000BE016F5F7F4FCE0148960E94C61CCE01CE
:1017C00048960E94F829182FCE0148960E948B1C3B
:1017D0001123B1F04DE050E063E972E0CE010196D3
:1017E0000E94171A43E952E065E170E0C7010E94C8
:1017F000F520BE016F5F7F4F85EA93E00E943B1C9E
:101800000E941D2ACE0101960E948B1C61EB71E0A3
:10181000CE0101960E94BD1CBE016F5F7F4FCE01BD
:1018200042960E94131B8C01CE0101960E948B1CD4
:1018300017FD43C0BE016E5E7F4FCE0148960E94E9
:10184000C61C21E030E04BE3BE01685E7F4FCE0155
:1018500001960E94D324CE0148960E948B1CBE01A3
:101860006F5F7F4FCE0148960E94C61CCE014896FE
:101870000E94F829182FCE0148960E948B1C112334
:10188000B1F04FE050E064E872E0CE0101960E94B2
:10189000171A44E852E061E270E0C7010E94F520A7
:1018A000BE016F5F7F4F8FE993E00E943B1C0E9457
:1018B0001D2ACE0101960E948B1C6CEA71E0CE01BC
:1018C00001960E94BD1CBE016F5F7F4FCE01429604
:1018D0000E94131B8C01CE0101960E948B1C17FDE8
:1018E0004AC0BE016E5E7F4FCE0148960E94C61C64
:1018F00021E030E04BE3BE01685E7F4FCE010196F0
:101900000E94D324CE0148960E948B1CBE016F5FBB
:101910007F4FCE0148960E94C61CCE0148960E9479
:10192000F829182FCE0148960E948B1C1123E9F04C
:1019300042E050E065EA72E0CE0101960E94171A7B
:1019400045EA52E060E370E0C7010E94F52085EAB5
:1019500092E00E9401358093CE02882319F0109204
:101960000F0103C081E080930F010E941D2ACE0168
:1019700001960E948B1C67EA71E0CE0101960E94DD
:10198000BD1CBE016F5F7F4FCE0142960E94131BAC
:101990008C01CE0101960E948B1C17FD8DC06EE953
:1019A00071E0CE0101960E94BD1C41E050E0BE01F5
:1019B0006F5F7F4FCE0148960E942F21BE01685E67
:1019C0007F4F8091CC029091CD020E947F17CE0173
:1019D00048960E948B1CCE0101960E948B1C6AE9DE
:1019E00071E0CE0148960E94BD1C6BE871E0CE010B
:1019F00001960E94BD1C9E01285E3F4F42E050E0D0
:101A0000BE016F5F7F4FCE014E960E948E21BE01B8
:101A1000625E7F4F8091CC029091CD020E947F1731
:101A2000CE014E960E948B1CCE0101960E948B1C0B
:101A3000CE0148960E948B1C67E871E0CE01489663
:101A40000E94BD1C6AE771E0CE0101960E94BD1C98
:101A50009E01285E3F4F42E050E0BE016F5F7F4F26
:101A6000CE014E960E948E21BE01625E7F4F809114
:101A7000CC029091CD020E947F17CE014E960E941B
:101A80008B1CCE0101960E948B1CCE0148960E94B1
:101A90008B1C68ED72E0CE0101960E94BD1CBE0158
:101AA0006F5F7F4F8091CC029091CD020E947F1793
:101AB000CE0101960E948B1C65E771E0CE01019674
:101AC0000E94BD1CBE016F5F7F4FCE0142960E94F7
:101AD000131B8C01CE0101960E948B1C17FD60C068
:101AE00067E671E0CE0101960E94BD1C41E050E026
:101AF000BE016F5F7F4FCE0148960E942F21BE012D
:101B0000685E7F4F8091CC029091CD020E947F173A
:101B1000CE0148960E948B1CCE0101960E948B1C20
:101B200063E671E0CE0148960E94BD1C60E571E05D
:101B3000CE0101960E94BD1C9E01285E3F4F41E0F0
:101B400050E0BE016F5F7F4FCE014E960E948E2106
:101B5000BE01625E7F4F8091CC029091CD020E94C7
:101B60007F17CE014E960E948B1CCE0101960E94DB
:101B70008B1CCE0148960E948B1C68ED72E0CE0152
:101B800001960E94BD1CBE016F5F7F4F8091CC0209
:101B90009091CD020E947F17CE0101960E948B1C6E
:101BA0006BE471E0CE0101960E94BD1CBE016F5F27
:101BB0007F4FCE0142960E94131B8C01CE010196ED
:101BC0000E948B1C17FD60C06DE371E0CE01019691
:101BD0000E94BD1C41E050E0BE016F5F7F4FCE010F
:101BE00048960E942F21BE01685E7F4F8091CC02F3
:101BF0009091CD020E947F17CE0148960E948B1CC7
:101C0000CE0101960E948B1C69E371E0CE014896DB
:101C10000E94BD1C6CE271E0CE0101960E94BD1CC9
:101C20009E01285E3F4F41E050E0BE016F5F7F4F55
:101C3000CE014E960E948E21BE01625E7F4F809142
:101C4000CC029091CD020E947F17CE014E960E9449
:101C50008B1CCE0101960E948B1CCE0148960E94DF
:101C60008B1C68ED72E0CE0101960E94BD1CBE0186
:101C70006F5F7F4F8091CC029091CD020E947F17C1
:101C8000CE0101960E948B1C67E271E0CE010196A5
:101C90000E94BD1CBE016F5F7F4FCE0142960E9425
:101CA000131B8C01CE0101960E948B1C17FDC2C034
:101CB000BE016E5E7F4FCE0148960E94C61C21E099
:101CC00030E04BE3BE01685E7F4FCE0101960E947B
:101CD000D324CE0148960E948B1CBE016F5F7F4FBC
:101CE00089EC93E00E943E1B882309F44CC069E113
:101CF00071E0CE0148960E94BD1C41E050E0BE015B
:101D0000685E7F4FCE014E960E942F21BE01625E1B
:101D10007F4F8091CC029091CD020E947F17CE011F
:101D20004E960E948B1CCE0148960E948B1C65E14A
:101D300071E0CE014E960E94BD1C63E071E0CE01C1
:101D400048960E94BD1C9E01225E3F4F41E050E03C
:101D5000BE01685E7F4FCE0184960E948E21BE0137
:101D60006C5D7F4F8091CC029091CD020E947F17D5
:101D7000CE0184960E948B1CCE0148960E948B1C3B
:101D8000CE014E963EC065EF70E0CE0148960E94AF
:101D9000BD1C41E050E0BE01685E7F4FCE014E9613
:101DA0000E942F21BE01625E7F4F8091CC029091F4
:101DB000CD020E947F17CE014E960E948B1CCE0151
:101DC00048960E948B1C68EE70E0CE0148960E94F7
:101DD000BD1C40E050E0BE01685E7F4FCE014E96D4
:101DE0000E942F21BE01625E7F4F8091CC029091B4
:101DF000CD020E947F17CE014E960E948B1CCE0111
:101E000048960E948B1C68ED72E0CE0148960E94B5
:101E1000BD1CBE01685E7F4F8091CC029091CD02C7
:101E20000E947F17CE0148960E948B1CCE0101961E
:101E30000E948B1C63EE70E0CE0101960E94BD1CD7
:101E4000BE016F5F7F4FCE0142960E94131B8C0133
:101E5000CE0101960E948B1C17FD80C0BE016E5EF4
:101E60007F4FCE0101960E94C61C21E030E04BE37B
:101E7000BE016F5F7F4FCE0148960E94D324BE0102
:101E8000685E7F4F83EC93E00E94521CCE0148961F
:101E90000E948B1CCE0101960E948B1C65ED70E0A8
:101EA000CE0101960E94BD1C41E050E0BE016F5F73
:101EB0007F4FCE0148960E942F21BE01685E7F4F62
:101EC0008091CC029091CD020E947F17CE0148965E
:101ED0000E948B1CCE0101960E948B1C61ED70E06C
:101EE000CE0148960E94BD1C63EC70E0CE010196C5
:101EF0000E94BD1C9E01285E3F4F41E050E0BE01A4
:101F00006F5F7F4FCE014E960E948E21BE01625EB2
:101F10007F4F8091CC029091CD020E947F17CE011D
:101F20004E960E948B1CCE0101960E948B1CCE0106
:101F300048960E948B1C68ED72E0CE0101960E94CB
:101F4000BD1CBE016F5F7F4F8091CC029091CD028E
:101F50000E947F17CE0101960E948B1C6EEB70E0F1
:101F6000CE0101960E94BD1CBE016F5F7F4FCE0166
:101F700042960E94131B8C01CE0101960E948B1C7D
:101F800017FDFDC0BE016E5E7F4FCE0101960E941F
:101F9000C61C21E030E04BE3BE016F5F7F4FCE01F6
:101FA00048960E94D324BE01685E7F4F83EC93E085
:101FB0000E943E1B182FCE0148960E948B1CCE011A
:101FC00001960E948B1C112309F473C060EB70E032
:101FD000CE0101960E94BD1C41E050E0BE016F5F42
:101FE0007F4FCE0148960E942F21BE01685E7F4F31
:101FF0008091CC029091CD020E947F17CE0148962D
:102000000E948B1CCE0101960E948B1C67EA70E037
:10201000CE0101960E94BD1C40E050E0BE016F5F02
:102020007F4FCE0148960E942F21BE01685E7F4FF0
:102030008091CC029091CD020E947F17CE014896EC
:102040000E948B1CCE0101960E948B1C68ED72E0F1
:10205000CE0101960E94BD1CBE016F5F7F4F809133
:10206000CC029091CD020E947F17CE0101960E9472
:102070008B1C60ED77E080E090E00E949A1363ECA7
:1020800073E0CE0101960E94C61CBE016F5F7F4FB8
:102090008091CC029091CD020E944715CE0101960D
:1020A0000E948B1C63EC73E089EC93E00E943B1C64
:1020B00066C069E970E0CE0101960E94BD1C41E056
:1020C00050E0BE016F5F7F4FCE0148960E942F21E6
:1020D000BE01685E7F4F8091CC029091CD020E943C
:1020E0007F17CE0148960E948B1CCE0101960E945C
:1020F0008B1C64E870E0CE0101960E94BD1C40E09C
:1021000050E0BE016F5F7F4FCE0148960E942F21A5
:10211000BE01685E7F4F8091CC029091CD020E94FB
:102120007F17CE0148960E948B1CCE0101960E941B
:102130008B1C68ED72E0CE0101960E94BD1CBE01B1
:102140006F5F7F4F8091CC029091CD020E947F17EC
:10215000CE0101960E948B1C62E971E0CE010196CE
:102160000E94CF1CBE016F5F7F4F8091CC02909187
:10217000CD020E947F17CE0101960E948B1C6FE753
:1021800070E0CE0101960E94BD1CBE016F5F7F4FC3
:10219000CE0142960E94131B8C01CE0101960E9433
:1021A0008B1C17FD86C0BE016E5E7F4FCE01489628
:1021B0000E94C61C21E030E04BE3BE01685E7F4F09
:1021C000CE0101960E94D324CE0148960E948B1C1A
:1021D00061E770E0CE0148960E94BD1C41E050E0EE
:1021E000BE01685E7F4FCE014E960E942F21BE0138
:1021F000625E7F4F8091CC029091CD020E947F174A
:10220000CE014E960E948B1CCE0148960E948B1CDC
:1022100068E670E0CE0148960E94BD1C40E050E0A8
:10222000BE01685E7F4FCE014E960E942F21BE01F7
:10223000625E7F4F8091CC029091CD020E947F1709
:10224000CE014E960E948B1CCE0148960E948B1C9C
:1022500068ED72E0CE0148960E94BD1CBE01685E2A
:102260007F4F8091CC029091CD020E947F17CE01CA
:1022700048960E948B1C60ED77E080E090E00E9421
:102280009A13BE016F5F7F4FCE0148960E94C61C15
:10229000BE01685E7F4F8091CC029091CD020E947A
:1022A000FD14CE0148960E948B1CCE0101960E941F
:1022B0008B1C64E670E080E090E00E949A13E114C9
:1022C000F10419F0C7010E94D138CE0142960E9454
:1022D0008B1CAF960FB6F894DEBF0FBECDBFDF915B
:1022E000CF911F910F91FF90EF900895FC01538DB6
:1022F000448D252F30E0842F90E0821B930B5417E0
:1023000010F0CF96089501970895FC01918D828D6C
:10231000981761F0828DDF01A80FB11D5D968C9139
:10232000928D9F5F9F73928F90E008958FEF9FEF44
:102330000895FC01918D828D981731F0828DE80F00
:10234000F11D858D90E008958FEF9FEF0895FC01BA
:10235000918D228D892F90E0805C9F4F821B910987
:102360008F739927089580EF92E00E94A71121E0D2
:10237000892B09F420E0822F0895FC01848DDF0170
:10238000A80FB11DA35ABF4F2C91848D90E00196E8
:102390008F739927848FA689B7892C93A089B189D7
:1023A0008C9180648C93938D848D981306C00288E1
:1023B000F389E02D80818F7D80830895EF92FF92D5
:1023C0000F931F93CF93DF93EC0181E0888F9B8D58
:1023D0008C8D981305C0E889F989808185FD24C01A
:1023E000F62E0B8D10E00F5F1F4F0F731127E02E9D
:1023F0008C8DE8120CC00FB607FCFACFE889F9897A
:10240000808185FFF5CFCE010E94BD11F1CF8B8D6C
:10241000FE01E80FF11DE35AFF4FF0820B8FEA89AE
:10242000FB898081806207C0EE89FF896083E8892B
:10243000F98980818064808381E090E0DF91CF9191
:102440001F910F91FF90EF900895CF93DF93EC01D0
:10245000888D8823C9F0EA89FB89808185FD05C0C4
:10246000A889B9898C9186FD0FC00FB607FCF5CFFE
:10247000808185FFF2CFA889B9898C9185FFEDCF46
:10248000CE010E94BD11E7CFDF91CF91089580E08A
:1024900090E0892B29F00E94B31181110C94000067
:1024A00008953FB7F8948091EC029091ED02A091CD
:1024B000EE02B091EF0226B5A89B05C02F3F19F0A0
:1024C0000196A11DB11D3FBFBA2FA92F982F8827B4
:1024D000820F911DA11DB11DBC01CD0142E0660F0F
:1024E000771F881F991F4A95D1F708950895CF93B4
:1024F000DF93EC01AA81BB8113961C921E92129766
:10250000ED91FC9111970680F781E02DCD010995A1
:102510000A80DB81C02DE881F9810680F781E02DFA
:10252000CE010995EA89FB8980818F7E8083EA89C3
:10253000FB898081877F8083EA89FB8980818F770F
:102540008083EA89FB8980818F7D80838A8D898F52
:10255000DF91CF9108950E94333A1F920F920FB6E8
:102560000F9211242F933F934F935F936F937F9319
:102570008F939F93AF93BF93EF93FF9380EF92E07E
:102580000E94BD11FF91EF91BF91AF919F918F91EB
:102590007F916F915F914F913F912F910F900FBE5F
:1025A0000F901F9018951F920F920FB60F92112443
:1025B0002F938F939F93EF93FF93E0910003F091FC
:1025C00001038081E0910603F091070382FD12C0B0
:1025D0009081809109038F5F8F7320910A03821786
:1025E00051F0E0910903F0E0E051FD4F958F8093A9
:1025F000090301C08081FF91EF919F918F912F91ED
:102600000F900FBE0F901F901895833081F028F423
:10261000813099F08230A1F008958730A9F0883098
:10262000B9F08430D1F4809180008F7D03C0809117
:1026300080008F7780938000089584B58F7702C0E3
:1026400084B58F7D84BD08958091B0008F7703C0DD
:102650008091B0008F7D8093B00008951F93CF9339
:10266000DF93282F30E0F901EB52FC4F8491F90100
:10267000EF53FC4FD491F901E355FC4FC491CC23A7
:10268000C9F0162F81110E940513EC2FF0E0EE0F18
:10269000FF1FE953FD4FA591B4918FB7F894111125
:1026A00005C09C91ED2FE095E92302C0EC91ED2B44
:1026B000EC938FBFDF91CF911F910895CF93DF935C
:1026C00090E0FC01EF53FC4F2491FC01E355FC4FDB
:1026D0008491882361F190E0880F991FFC01E55CEB
:1026E000FB4FC591D491FC01E953FD4FA591B491E5
:1026F000611109C09FB7F89488812095822388834F
:10270000EC912E230BC0623061F49FB7F8943881AE
:10271000822F809583238883EC912E2B2C939FBF4F
:1027200006C08FB7F894E8812E2B28838FBFDF91E6
:10273000CF9108958F929F92AF92BF92CF92DF92E6
:10274000EF92FF926B017C010E9451124B015C01E0
:10275000C114D104E104F104F1F00E945112DC0132
:10276000CB0188199909AA09BB09883E9340A105A4
:10277000B10570F321E0C21AD108E108F10888EE32
:10278000880E83E0981EA11CB11CC114D104E10481
:10279000F10419F7DDCFFF90EF90DF90CF90BF905D
:1027A000AF909F908F9008952FB7F8946091E802B2
:1027B0007091E9028091EA029091EB022FBF089597
:1027C0001F920F920FB60F9211242F933F938F9366
:1027D0009F93AF93BF938091E8029091E902A091FB
:1027E000EA02B091EB023091E70223E0230F2D378C
:1027F00020F40196A11DB11D05C026E8230F029605
:10280000A11DB11D2093E7028093E8029093E90295
:10281000A093EA02B093EB028091EC029091ED025A
:10282000A091EE02B091EF020196A11DB11D80931F
:10283000EC029093ED02A093EE02B093EF02BF91F1
:10284000AF919F918F913F912F910F900FBE0F905D
:102850001F9018951F920F920FB60F9211242F936D
:102860003F934F935F936F937F938F939F93AF9318
:10287000BF93EF93FF93E0911201F091130109953B
:10288000FF91EF91BF91AF919F918F917F916F9148
:102890005F914F913F912F910F900FBE0F901F901E
:1028A00018951F920F920FB60F9211242F933F93FA
:1028B0004F935F936F937F938F939F93AF93BF9348
:1028C000EF93FF93E0911001F09111010995FF91B1
:1028D000EF91BF91AF919F918F917F916F915F9198
:1028E0004F913F912F910F900FBE0F901F90189511
:1028F000CF93DF93EC0160E08C810E942E1360E0A7
:102900008D810E942E136CE271E080E090E00E94C5
:102910009A1361E08D810E942E1368EB7BE080E0CA
:1029200090E00E949A13488959896A897B89888135
:102930009981009721F0DF91CF910C9473278A81C0
:102940009B81DF91CF910C94B019CF93DF93EC0171
:1029500064E670E080E090E00E949A1361E08C8170
:102960000E942E1364E670E080E090E00E949A13CB
:1029700060E08D810E942E1364E670E080E090E0BC
:102980000E949A1361E08D810E942E1360ED77E022
:1029900080E090E00E949A134C855D856E857F856E
:1029A00088819981009721F0DF91CF910C94732752
:1029B0008A819B81DF91CF910C94B019FC01A08199
:1029C000B181109741F0ED91FC9111970084F18550
:1029D000E02DCD0108C082819381DC01ED91FC9155
:1029E0000084F185E02D0994FC018081918100979C
:1029F00011F4828193810C94531DEF92FF920F93F7
:102A00001F93CF93DF93CDB7DEB72C970FB6F89413
:102A1000DEBF0FBECDBF8C017B010E94A51466E115
:102A200072E0CE0101960E94CF1CB701CE01019643
:102A30000E94E91B6EE971E00E94D01BBC01CE012F
:102A400007960E94C61CBE01695F7F4FC8010E94A5
:102A5000F414CE0107960E948B1CCE0101960E94B1
:102A60008B1C60ED77E080E090E00E949A13C80133
:102A70000E9478142C960FB6F894DEBF0FBECDBF1F
:102A8000DF91CF911F910F91FF90EF900895EF92FA
:102A9000FF920F931F93CF93DF93CDB7DEB72C97A1
:102AA0000FB6F894DEBF0FBECDBF8C017B010E9434
:102AB000A5146FE172E0CE0101960E94CF1CB70110
:102AC000CE0101960E94E91B6EE971E00E94D01BC5
:102AD000BC01CE0107960E94C61CBE01695F7F4FF4
:102AE000C8010E94F414CE0107960E948B1CCE01EF
:102AF00001960E948B1C60ED77E080E090E00E94E0
:102B00009A13C8010E9478142C960FB6F894DEBF71
:102B10000FBECDBFDF91CF911F910F91FF90EF902E
:102B200008950F931F93CF93DF93CDB7DEB7A89788
:102B30000FB6F894DEBF0FBECDBF8C010E94A51466
:102B4000F80180819181892B09F459C06CED75E001
:102B500080E090E00E949A1361E374E0F8018081C4
:102B600091810E94AE1DF80160817181CE010196B4
:102B70000E942A1DCE0101960E948B1C6CED75E00F
:102B800080E090E00E949A13F8016089718982893F
:102B900093891CA21BA21EA21DA218A61FA22AE096
:102BA000AE014F5F5F4F0E943A35BE016F5F7F4FAE
:102BB000CE0183960E94241C68E272E0CE01019649
:102BC0000E94CF1CBE016D5D7F4FCE0101960E9419
:102BD000E91B61E372E00E94D01BBC01F801808117
:102BE00091810E949A1DCE0101960E948B1CCE01FC
:102BF00083960E948B1CF8016081718158C06CED36
:102C000075E080E090E00E949A1367E274E0F801BA
:102C1000828193810E94AE1DF80162817381CE0191
:102C200001960E942A1DCE0101960E948B1C6CED1C
:102C300075E080E090E00E949A13F8016089718944
:102C4000828993891CA21BA21EA21DA218A61FA2E4
:102C50002AE0AE014F5F5F4F0E943A35BE016F5FC1
:102C60007F4FCE0183960E94241C68E272E0CE0161
:102C700001960E94CF1CBE016D5D7F4FCE01019673
:102C80000E94E91B61E372E00E94D01BBC01F801C5
:102C9000828193810E949A1DCE0101960E948B1C15
:102CA000CE0183960E948B1CF80162817381CE0154
:102CB00001960E942A1DCE0101960E948B1C6CED8C
:102CC00075E080E090E00E949A13C8010E94781499
:102CD000C8010E947712A8960FB6F894DEBF0FBE07
:102CE000CDBFDF91CF911F910F910895CF92DF92C9
:102CF000EF92FF920F931F93CF93DF93CDB7DEB781
:102D000062970FB6F894DEBF0FBECDBF8C016B018A
:102D10007A01FC01608171816115710509F46CC053
:102D2000CE0101960E942A1DCE0101960E948B1CA5
:102D300068E174E0F801808191810E94AE1DF80184
:102D400060817181CE0101960E942A1DCE010196FB
:102D50000E948B1C6CE47DE180E090E00E949A135D
:102D600061E174E0F801808191810E94AE1D6CE404
:102D70007DE180E090E00E949A13C8010E94DE1479
:102D8000181619060CF0AAC0F80160817181CE01F5
:102D900001960E942A1DCE0101960E948B1C66E3BB
:102DA00072E0CE0101960E94CF1CB601CE010196C1
:102DB0000E94E91B6EE971E00E94D01BBC01F80182
:102DC000808191810E94531DCE0101960E948B1C2F
:102DD00064EC79E080E090E00E949A13F801608151
:102DE0007181CE0107960E942A1D6CED75E080E08E
:102DF00090E00E949A1349C0FC0162817381CE0168
:102E000001960E942A1DCE0101960E948B1C62E051
:102E100074E0F801828193810E94AE1D64EF71E03D
:102E200080E090E00E949A13F80162817381CE01E4
:102E300001960E942A1DCE0101960E948B1C66E31A
:102E400072E0CE0101960E94CF1CB601CE01019620
:102E50000E94E91B6EE971E00E94D01BBC01F801E1
:102E6000828193810E94531DCE0101960E948B1C8A
:102E700068EE73E080E090E00E949A13F8016281AE
:102E80007381CE0107960E942A1D60E472E0CE0194
:102E90000D960E94CF1CB701CE010D960E94E91B32
:102EA000BC01CE0101960E94C61CCE010D960E9467
:102EB0008B1CBE016F5F7F4FCE0107960E94131BD4
:102EC0009095192F111F1127111FCE0101960E94F5
:102ED0008B1CCE0107960E948B1C01C010E0812F35
:102EE00062960FB6F894DEBF0FBECDBFDF91CF91D3
:102EF0001F910F91FF90EF90DF90CF900895FC010C
:102F000080819181009711F4828193810C949A1DA4
:102F10002F923F924F925F926F927F928F929F92E9
:102F2000AF92BF92CF92DF92EF92FF920F931F93D7
:102F3000CF93DF9300D01F92CDB7DEB75C014B017A
:102F40002901FB010481158101501109612C712CAB
:102F5000CC24CA94DC2C212C312CE12CF12C7B824A
:102F60006A82061517057CF14E145F042CF16A8104
:102F70007B81C40149830E942D1B2A813B812F5FE5
:102F80003F4F4981841741F08A819B8180179107C7
:102F900019F0DB82CA820CC09FEFE91AF90A160108
:102FA000EFEF2E1A3E0A6016710611F43B832A8356
:102FB0003901CA80DB80D3CF9601A101B401C501DC
:102FC0000E94E41C08C04E145F04B4F360EA71E090
:102FD000C5010E94CF1CC5010F900F900F90DF918B
:102FE000CF911F910F91FF90EF90DF90CF90BF9006
:102FF000AF909F908F907F906F905F904F903F9099
:103000002F900895CF93DF93FC01C281D381CE012D
:103010000E94851D6EE971E0CE01DF91CF910C9485
:10302000851DCF92DF92EF92FF920F931F93CF9364
:10303000DF93CDB7DEB72C970FB6F894DEBF0FBE87
:10304000CDBF8C017B016A016FEF73E0DC0112964A
:103050008D919C9113970E94AE1D68EE73E080E005
:1030600090E00E949A1364EF73E0F80182819381EB
:103070000E94AE1D64E670E080E090E00E949A132A
:1030800068E472E0CE0107960E94CF1CB601CE0123
:1030900007960E94E91B60EC71E00E94D01BBC0106
:1030A000CE0101960E94C61CCE0107960E948B1C81
:1030B000BE016F5F7F4FD80112968D919C9113973F
:1030C0000E949A1D64E670E080E090E00E949A13EE
:1030D000B701F801828193810E949A1D64E670E035
:1030E00080E090E00E949A13D8011296ED90FC9037
:1030F0001397D701ED91FC910190F081E02D6AE1E9
:10310000C70109956EE971E0C7010E94851D68EE4F
:1031100073E080E090E00E949A136EE971E0F8019C
:10312000828193810E94851DCE0101960E948B1C95
:103130002C960FB6F894DEBF0FBECDBFDF91CF91B6
:103140001F910F91FF90EF90DF90CF900895EF9235
:10315000FF920F931F93CF93DF93CDB7DEB7C85C79
:10316000D1090FB6F894DEBF0FBECDBFFC0121819F
:10317000211121C07B018C0162E572E0CE01019634
:103180000E94553AB701CE0101960E94413A69E585
:1031900072E0CE0101960E94413AF801028113814A
:1031A000BE016F5F7F4FC8010E94851D6EE971E00F
:1031B000C8010E94851DC853DF4F0FB6F894DEBFCB
:1031C0000FBECDBFDF91CF911F910F91FF90EF9078
:1031D00008950895CF92DF92EF92FF920F931F937D
:1031E000CF93DF936C017A018B01C0E0D0E0CE1564
:1031F000DF0589F0D8016D918D01D601ED91FC912B
:103200000190F081E02DC6010995892B11F47E0112
:1032100002C02196ECCFC701DF91CF911F910F9192
:10322000FF90EF90DF90CF9008950F931F93CF936F
:10323000DF93EC010E94D413688779878A879B8784
:10324000E881F9810284F385E02DCE01099597FF8D
:1032500017C00E94D413088519852A853B85DC0197
:10326000CB01801B910BA20BB30B0C811D812E8116
:103270003F8180179107A207B30710F38FEF9FEFED
:10328000DF91CF911F910F910895CF93DF93EC01C0
:1032900088819981009711F00E94D1381982188293
:1032A0001D821C821B821A82DF91CF9108950F9399
:1032B0001F93CF93DF93EC0188819981009729F0C8
:1032C0002A813B812617370788F48B016F5F7F4F78
:1032D0000E946939009761F0998388831B830A8370
:1032E0002C813D81232B11F4FC01108281E001C06F
:1032F00080E0DF91CF911F910F910895EF92FF929F
:103300000F931F93CF93DF93EC017B018A01BA01E6
:103310000E945719811104C0CE010E94451907C0AF
:103320001D830C83B701888199810E94553ACE0193
:10333000DF91CF911F910F91FF90EF900895DC01E5
:1033400014962D913C911597232B41F0ED91FC9112
:1033500081E09081992319F080E0089581E008953B
:10336000CF92DF92EF92FF920F931F93CF93DF9351
:10337000EC016A017B01E889F98982E080834115CB
:10338000514E61057105B1F060E079E08DE390E0A8
:10339000A70196010E94E13789019A0101501109A4
:1033A000210931093695279517950795980101153B
:1033B0001041A8F0E889F989108260E874E88EE18C
:1033C00090E0A70196010E94E137DA01C901019757
:1033D000A109B109B695A795979587959C01EC85AC
:1033E000FD853083EE85FF852083188EEC89FD896D
:1033F00086E08083EA89FB89808180618083EA8915
:10340000FB89808188608083EA89FB89808180686C
:103410008083EA89FB8980818F7D8083DF91CF91D2
:103420001F910F91FF90EF90DF90CF9008950F9331
:103430001F93CF93DF93FC01248135812115310542
:1034400019F4FB01108211C0EA0121972C173D07E6
:1034500008F4E9018B01FC0160817181AE01C801B2
:103460000E946A3AC00FD11F1882DF91CF911F913D
:103470000F9108954115510529F06115710511F05D
:103480000C94171A0895CF92DF92EF92FF920F9348
:103490001F93CF93DF93EC012A853B8521303105C3
:1034A00009F457C02115310511F410E053C01885F7
:1034B000112311F018864EC02230310549F58C8158
:1034C0009D81AE81BF81892B8A2B8B2B89F40E9431
:1034D000D413C880D980EA80FB80DC01CB018C0D3D
:1034E0009D1DAE1DBF1D8C839D83AE83BF8332C0E7
:1034F0000E94D4130C811D812E813F8160177107BA
:103500008207930790F21C821D821E821F8221C0B7
:1035100023303105E9F48C819D81AE81BF81892BF7
:103520008A2B8B2BA1F20E94D4130C811D812E813A
:103530003F81601771078207930708F4B6CF1C829A
:103540001D821E821F8281E090E09B878A8701C0D6
:1035500002C011E0812FDF91CF911F910F91FF9059
:10356000EF90DF90CF900895AF92BF92CF92DF920D
:10357000EF92FF920F931F93CF93DF93DC01CD90D7
:10358000DC901197C114D10409F442C01496CD9176
:10359000DC9115972097E1F18C0156017501BFEF81
:1035A000AB1ABB0AF7018081082E000C990B0E9410
:1035B0009835892B99F72197CC0DDD1D8881082E30
:1035C000000C990B0E949835892B91F4AE014F5F46
:1035D0005F4F4E195F09D80115965C934E9314976F
:1035E000CE14DF0450F4B701C6010E94383A05C07A
:1035F000CE15DF0558F32197E1CFD801ED91FC916D
:10360000119714968D919C911597E80FF91F1082D0
:10361000DF91CF911F910F91FF90EF90DF90CF90AE
:10362000BF90AF900895CF93DF93FC012481358143
:10363000232B71F0FB01DC01CD91DC916081718164
:10364000CE010E94843A009719F08C1B9D0B02C09A
:103650008FEF9FEFDF91CF910895FC012481358199
:103660006217730748F480819181009729F0FC016B
:10367000E60FF71F8081089580E00895FC01248102
:103680003581FB01448155812417350721F5FC0163
:1036900080819181FB0160817181009719F0611532
:1036A0007105A1F46115710549F0232BB1F0FB01FF
:1036B000808190E09195819591090AC0009769F009
:1036C000232B59F0FC01808190E002C00E944C3A0B
:1036D00021E0892B19F020E001C021E0822F08951C
:1036E000EF92FF920F931F93CF93DF93EC017B0137
:1036F00061157105E1F0CB010E9426350097D1F0EC
:103700002C813D818C01020F131FB801CE010E9454
:103710005719882361F0288139818C819D81B701F7
:10372000820F931F0E941F351D830C8303C0CE019F
:103730000E944519CE01DF91CF911F910F91FF900B
:10374000EF900895EF92FF920F931F93CF93DF9323
:10375000FC01248135816115710511F480E019C0E7
:1037600041155105A9F07B01EC018A01020F131FDD
:10377000B8010E945719882389F3288139818C81E7
:103780009D81B701820F931F0E94553A1D830C83C0
:1037900081E0DF91CF911F910F91FF90EF900895FD
:1037A000CF93DF93EC016115710561F0FB0101908E
:1037B0000020E9F73197AF01461B570B0E94A21B6F
:1037C000811103C0CE010E944519CE01DF91CF9136
:1037D0000895CF93DF93EC01FB0144815581608113
:1037E00071810E94A21B811103C0CE010E94451964
:1037F000CE01DF91CF910895EF92FF920F931F9327
:10380000CF93DF93EC018B016115710551F0CB0172
:103810000E9426357C01BC01CE010E9457198111FE
:1038200004C0CE010E94451907C0FD82EC82B80198
:10383000888199810E941F35CE01DF91CF911F9120
:103840000F91FF90EF900895CF93DF93EC016115F6
:10385000710559F0FB0101900020E9F73197AF01A4
:10386000461B570B0E947E1902C00E944519CE01CB
:10387000DF91CF910895CF93DF93EC01FB01861781
:10388000970761F0608171816115710529F04481AC
:1038900055810E947E1902C00E944519CE01DF9118
:1038A000CF9108950F931F93CF93DF938C01EB017A
:1038B000FC01808191810097B1F068817981611567
:1038C000710579F0428153812C813D814217530764
:1038D00040F00E94553A8C819D81F8019583848344
:1038E00013C00E94D13888819981F8019183808327
:1038F0008A819B81938382838C819D81958384833C
:10390000198218821B821A821D821C82DF91CF913C
:103910001F910F910895FC01808191810C94D13801
:103920000F931F93CF93DF93CDB7DEB729970FB6D1
:10393000F894DEBF0FBECDBF8C01862FF801118237
:103940001082138212821582148250E0BE016F5FD2
:103950007F4F90E00E947335BE016F5F7F4FC801BB
:103960000E94241C29960FB6F894DEBF0FBECDBF6F
:10397000DF91CF911F910F910895FC011182108268
:1039800013821282158214820C94FC1BFC0111829A
:10399000108213821282158214820C943B1CFC014B
:1039A00011821082138212821582148261157105B0
:1039B00051F0FB0101900020E9F73197AF01461B60
:1039C000570B0C947E190895BF92CF92DF92EF921D
:1039D000FF920F931F93CF93DF937C016B018A01BA
:1039E000E9012417350720F4812F8901C42FD82F2E
:1039F00060EA71E0C7010E94CF1CD60114968D9138
:103A00009C91159708171907D0F48C179D0708F497
:103A1000EC01D601ED91FC911197EC0FFD1FB080E8
:103A200010824D915C91BA01600F711FC7010E9415
:103A3000241CD601ED91FC91EC0FFD1FB082C70153
:103A4000DF91CF911F910F91FF90EF90DF90CF907A
:103A5000BF900895EF92FF920F931F93CF93DF9340
:103A600000D0CDB7DEB78C017B0160EA71E00E9427
:103A7000CF1CC7010E94151997FD0BC089831A82BC
:103A800041E050E0BE016F5F7F4FC8010E94A21B62
:103A9000F0CFC8010F900F90DF91CF911F910F9140
:103AA000FF90EF900895DC01ED91FC91DB011496FD
:103AB0004D915C9115976D917C910280F381E02D81
:103AC0000994EF92FF920F931F93CF93DF938C0192
:103AD0007B01C0E0D0E0F701EC0FFD1F649166238D
:103AE00061F0D801ED91FC910190F081E02DC801C9
:103AF0000995892B11F02196EECFCE01DF91CF9160
:103B00001F910F91FF90EF9008956115710579F065
:103B1000FB0101900020E9F73197AF01461B570BDD
:103B2000DC01ED91FC910280F381E02D099480E0AD
:103B300090E008950F931F93CF93DF93EC010E94C1
:103B4000531D8C016EE971E0CE010E94851D800F2E
:103B5000911FDF91CF911F910F9108950F931F93A4
:103B6000CF93DF93EC010E94611D8C016EE971E03F
:103B7000CE010E94851D800F911FDF91CF911F9173
:103B80000F91089521E001C0220F6A95EAF7DC0148
:103B90001C962C931C971A965C934E931997ED9153
:103BA000FC910484F585E02D60E00994DC01ED9141
:103BB000FC910684F785E02D41E0099581E090E0D5
:103BC0000895DC01ED91FC910684F785E02D40E03D
:103BD00009940895089520913404309135042817EC
:103BE000390771F49091330480913204981741F0B1
:103BF000E0913304F0E0EE50FC4F808190E00895B6
:103C00008FEF9FEF089508951F93CF93DF93DC010B
:103C10005C962D913C915D972115310539F481E039
:103C200090E013969C938E9312973DC05196ED9120
:103C3000FC91529750969C915097892F80951FB771
:103C40005E964C915E9741FB772770F941FD609538
:103C5000F8944081772311F0492B01C04823408319
:103C6000E9012197F1F748E0508160FF02C0592B2C
:103C700001C058235083E9012197F1F7669541501F
:103C800099F7772321F090818923808303C0808175
:103C9000982B90831FBF5C968D919C915D970197A7
:103CA000F1F721E030E0C901DF91CF911F91089534
:103CB0000F931F93CF93DF93EC01423018F08C8168
:103CC00088608C834F836887222329F0413019F460
:103CD0008C8184608C8364E670E080E090E00E94D8
:103CE0009A136C8164FD31C0E881F9810684F785FF
:103CF000E02D42E063E0CE0109950BE416E4C80133
:103D00000197F1F7E881F9810684F785E02D42E01B
:103D100063E0CE010995C8010197F1F7E881F981C7
:103D20000684F785E02D42E063E0CE01099583E546
:103D300092E00197F1F7E881F9810684F785E02D9B
:103D400042E062E0CE01099516C06062CE010E9499
:103D5000E11D8BE496E40197F1F76C816062CE017E
:103D60000E94E11D83E592E00197F1F76C816062AA
:103D7000CE010E94E11D6C816062CE010E94E11DB6
:103D800084E08D836CE0CE010E94E11D61E0CE01F4
:103D90000E94E11D8BE39FE10197F1F782E08E83A2
:103DA00066E0CE010E94E11DE881F9810484F58579
:103DB000E02D6FEFCE01DF91CF911F910F9109940C
:103DC000CF93FC012381222309F46EC09181909549
:103DD00069236083C28181E080933604C093A2048A
:103DE00010925804109257048DE893E00E944027E7
:103DF00080915704813208F04AC020917F0421113C
:103E0000FCCF92E090937F0491E090937E049FEF2B
:103E100090937D0410927C0480937B04A7E3B4E02C
:103E200049E554E0FA019E2F941B981718F49D91D0
:103E30009193F9CF10927A0480917A04CC0FC82B19
:103E4000C0937A0480917904813061F410927904EE
:103E500080917A048093BB008091BC0083FDF8CFF1
:103E600085EC01C085EE8093BC0080917F04823098
:103E7000E1F380917D048F3F79F080917D04803261
:103E800041F080917D04803331F024E005C021E0D1
:103E900003C022E001C023E010925804109257049E
:103EA0001092360430E002C020E030E081E090E083
:103EB000232B11F080E090E0CF910895EF92FF92D4
:103EC0000F931F93CF938C01FC01759684E0C0E0A3
:103ED00060FF02C09081C92B669581503196811197
:103EE000F7CF413011F4F8014489F8018585C82BDA
:103EF000C42B7801FEE0EF0EF11CF80162896C2BF7
:103F0000C7010E94E01EF801628960956C23C70119
:103F1000CF911F910F91FF90EF900C94E01E0F93A3
:103F20001F93CF93DF93062F0F70423019F440E0B8
:103F3000602F10C0142F262FEC0130E0B90184E06F
:103F4000759567958A95E1F7CE010E945E1F412F16
:103F5000602FCE01DF91CF911F910F910C945E1FC6
:103F6000FC0184858823A9F021853285211531053E
:103F700019F4611106C007C02130310521F4611127
:103F800002C0858701C015866585CF010E960C9409
:103F9000E01E0895FF920F931F93CF93DF93EC01E0
:103FA000162F042FF22E8B85888B1092810410928D
:103FB0008004109258041092570410927F0481E0FC
:103FC00080937E041092790461E082E10E942E13B6
:103FD00061E083E10E942E138091B9008E7F80936F
:103FE000B9008091B9008D7F8093B90088E48093F7
:103FF000B80085E48093BC00888990917F0491117A
:10400000FCCF91E090937F0490937E042FEF209358
:104010007D0410927C0410927B0490937A0490911A
:104020007A04880F892B80937A04809179048130F7
:1040300061F41092790480917A048093BB0080919E
:10404000BC0083FDF8CF85EC01C085EE8093BC00F9
:1040500080917F048130E1F380917C04811103C061
:1040600080917C0401C081E0A9E5B4E022E834E05D
:10407000F9019E2F921B981718F49D919193F9CFF7
:10408000109281048093800491E0811101C090E03E
:10409000998B8DE893E00E94F4268E878989882386
:1040A00039F01F861C8260E0CE010E960E94E01E51
:1040B0002F2D402F612FCE01DF91CF911F910F91B6
:1040C000FF900C94581EEF92FF920F931F93CF9383
:1040D000DF9300D0CDB7DEB78C017B0160EA71E0E1
:1040E0000E94CF1CD70112968D919C911397DC01F1
:1040F000ED91FC910084F185E02D099518161906C3
:104100000CF5F70182819381DC01ED91FC91008433
:10411000F185E02D0995892BA9F0F7018281938122
:10412000DC01ED91FC910284F385E02D09958983F2
:104130001A8241E050E0BE016F5F7F4FC8010E94CC
:10414000A21BDFCFC8010F900F90DF91CF911F917D
:104150000F91FF90EF900895DC0112968D919C9144
:104160001397DC01ED91FC910084F185E02D099518
:1041700021E0181619060CF020E0822F0895CF9246
:10418000DF92EF92FF920F931F93CF93DF937C0107
:104190008B016A010E94D836F8018083C1E0D0E02B
:1041A0008823C9F0CC15DD057CF4CE018E0D9F1D52
:1041B0008115F2E09F0744F40E94D836F801EC0F15
:1041C000FD1F80832196ECCF1C161D0624F4C00F22
:1041D000D11F2197188281E0DF91CF911F910F911C
:1041E000FF90EF90DF90CF900895CF92DF92EF9203
:1041F000FF920F931F93CF93DF93FA01019000205A
:10420000E9F73197E41BF50B611522E07207E8F43A
:104210007F018FEFE81AF80ACB018E0D9F1D8115E3
:10422000924098F48B01EA01C12CD12CCE14DF040A
:1042300054F46991C601800F911F0E94E0368FEF00
:10424000C81AD80AF3CF81E001C080E0DF91CF9196
:104250001F910F91FF90EF90DF90CF900895CF9234
:10426000DF92EF92FF920F931F93CF93DF9300D0D3
:1042700000D000D0CDB7DEB78C017B016A01CE0142
:1042800001960E94C61C69E574E0CE0101960E9469
:10429000701BBC01C7010E943B1CCE0101960E940D
:1042A0008B1C81E0C816D10471F082E0C816D104DD
:1042B00091F0CD2819F5B701CE0101960E94C61CD8
:1042C00065E574E00FC0B701CE0101960E94C61CDF
:1042D00061E574E007C0B701CE0101960E94C61CDB
:1042E0006DE474E0CE0101960E94701BBC01C80110
:1042F0000E94C61CCE0101960E948B1CC801269606
:104300000FB6F894DEBF0FBECDBFDF91CF911F91E6
:104310000F91FF90EF90DF90CF900895AF92BF92F2
:10432000CF92DF92EF92FF920F931F93CF93DF9381
:1043300000D000D000D0CDB7DEB78C017B015A0190
:104340006901CE0101960E94C61C6BE474E0CE01A7
:1043500001960E94701BBC01C7010E943B1CCE014C
:1043600001960E948B1C81E0A816B10471F082E0D6
:10437000A816B10491F0AB2831F5B701CE01019632
:104380000E94C61C69E474E00FC0B701CE0101961B
:104390000E94C61C67E474E007C0B701CE01019615
:1043A0000E94C61C65E474E0CE0101960E94701B59
:1043B000B6010E94E91BBC01C8010E94C61CCE01C7
:1043C00001960E948B1CC80126960FB6F894DEBF9A
:1043D0000FBECDBFDF91CF911F910F91FF90EF9056
:1043E000DF90CF90BF90AF90089581E08093D1028D
:1043F00008958F929F92AF92BF92CF92DF92EF92E9
:10440000FF920F931F93CF93DF93CDB7DEB7C854BE
:10441000D1090FB6F894DEBF0FBECDBF8FE090E09C
:104420000E943C388C018091D002882319F06BEEF9
:1044300074E002C061EE74E0CE0101960E94BD1CE2
:104440004FE050E0B801CE0101960E943A1ACE0129
:1044500001960E948B1CB801CE0101960E94553A2C
:1044600065E171E0CE0101960E94413A0E94CC299B
:104470000E9497374B015C01C8010E94D138C0905F
:10448000C402D090C502E090C602F090C70220E0BE
:1044900030E040E550E4C701B6010E94B13518167E
:1044A0001CF06BE774E033C023E333E343E550E4EF
:1044B000C701B6010E94B13518161CF063E774E01D
:1044C00026C02AE939E949E550E4C701B6010E944E
:1044D000B13518161CF06BE674E019C026E636E616
:1044E00046E650E4C701B6010E94B13518161CF02B
:1044F00063E674E00CC020E030E040EB50E4C7011C
:10450000B6010E94B135181634F06BE574E0CE01A7
:10451000C1960E94BD1CBE016F5F7F4FCE014F96BA
:104520000E94CF1C41E050E0BE01615E7F4FCE0192
:10453000C7960E942F21BE01695C7F4F8091CC02FB
:104540009091CD020E947F17CE01C7960E948B1CCE
:10455000CE014F960E948B1C8FE090E00E943C3869
:104560008C0163ED74E0CE014F960E94BD1C4FE0BC
:1045700050E0B801CE014F960E943A1ACE014F96F4
:104580000E948B1C6FEC74E0CE01C7960E94BD1C8C
:10459000B801CE014F960E94CF1C9E01295C3F4F6F
:1045A00042E050E0BE01615E7F4FCE01CD960E9499
:1045B0008E21BE01635C7F4F8091CC029091CD0231
:1045C0000E947F17CE01CD960E948B1CCE014F9684
:1045D0000E948B1CCE01C7960E948B1C66EC74E077
:1045E000CE014F960E94BD1C4FE050E0B801CE01B5
:1045F0004F960E943A1ACE014F960E948B1C62EC95
:1046000074E0CE01C7960E94BD1CB801CE014F9642
:104610000E94CF1C9E01295C3F4F42E050E0BE014A
:10462000615E7F4FCE01CD960E948E21BE01635CFC
:104630007F4F8091CC029091CD020E947F17CE01D6
:10464000CD960E948B1CCE014F960E948B1CCE01F2
:10465000C7960E948B1C8091D002811114C069EB17
:1046600074E0CE014F960E94BD1C4FE050E0B801AF
:10467000CE014F960E943A1ACE014F960E948B1C93
:1046800065EB74E013C06BEA74E0CE014F960E94B4
:10469000BD1C4FE050E0B801CE014F960E943A1A7F
:1046A000CE014F960E948B1C67EA74E0CE01C7963C
:1046B0000E94BD1CB801CE014F960E94CF1C9E01E6
:1046C000295C3F4F40E050E0BE01615E7F4FCE016C
:1046D000CD960E948E21BE01635C7F4F8091CC02FB
:1046E0009091CD020E947F17CE01CD960E948B1C27
:1046F000CE014F960E948B1CCE01C7960E948B1C48
:1047000060EA74E0CE014F960E94BD1C4FE050E07D
:10471000B801CE014F960E943A1ACE014F960E94E0
:104720008B1C18AE1FAA1AAE19AE1CAE1BAE4AE007
:10473000BE01615E7F4FC4010E942F35BE01615EE4
:104740007F4FCE01C7960E94241CB801CE014F9620
:104750000E94CF1CBE01695C7F4FCE014F960E9424
:10476000E91BBC01CE01CD960E94C61C42E050E080
:10477000BE01635C7F4FCE018D5B9F4F0E942F2156
:10478000BE016D5B7F4F8091CC029091CD020E9463
:104790007F17CE018D5B9F4F0E948B1CCE01CD9663
:1047A0000E948B1CCE014F960E948B1CCE01C79697
:1047B0000E948B1C64E974E0CE014F960E94BD1CE0
:1047C0004FE050E0B801CE014F960E943A1ACE0158
:1047D0004F960E948B1CB801CE014F960E94CF1CB1
:1047E000BE016F5C7F4FCE014F960E94E91BBC015A
:1047F000CE01C7960E94C61C42E050E0BE01695C33
:104800007F4FCE01CD960E942F21BE01635C7F4F6A
:104810008091CC029091CD020E947F17CE01CD965F
:104820000E948B1CCE01C7960E948B1CCE014F9616
:104830000E948B1C6BE874E0CE014F960E94BD1C59
:104840004FE050E0B801CE014F960E943A1ACE01D7
:104850004F960E948B1CB801CE014F960E94CF1C30
:1048600061EB73E0CE014F960E94E91BBC01CE01C3
:10487000C7960E94C61C42E050E0BE01695C7F4FB3
:10488000CE01CD960E942F21BE01635C7F4F8091A7
:10489000CC029091CD020E947F17CE01CD960E944E
:1048A0008B1CCE01C7960E948B1CCE014F960E9496
:1048B0008B1C63E874E0CE014F960E94BD1C4FE054
:1048C00050E0B801CE014F960E943A1ACE014F96A1
:1048D0000E948B1CB801CE014F960E94CF1C6BEA40
:1048E00073E0CE014F960E94E91BBC01CE01C79632
:1048F0000E94C61C42E050E0BE01695C7F4FCE01C1
:10490000CD960E942F21BE01635C7F4F8091CC0227
:104910009091CD020E947F17CE01CD960E948B1CF4
:10492000CE01C7960E948B1CCE014F960E948B1C15
:1049300068ED72E0CE014F960E94BD1CBE01615E23
:104940007F4F8091CC029091CD020E947F17CE01C3
:104950004F960E948B1CE091CC02F091CD02828197
:104960009381DC01ED91FC910680F781E02D0995A2
:10497000C8010E94D138CE01C1960E948B1CC85B31
:10498000DF4F0FB6F894DEBF0FBECDBFDF91CF91E2
:104990001F910F91FF90EF90DF90CF90BF90AF905D
:1049A0009F908F9008952F923F924F925F926F92B7
:1049B0007F928F929F92AF92BF92CF92DF92EF92AF
:1049C000FF920F931F93CF93DF9300D01F92CDB729
:1049D000DEB75C014B012901FB0104811581015007
:1049E0001109612C712CCC24CA94DC2C212C312C83
:1049F000E12CF12C7B826A82061517057CF14E149E
:104A00005F042CF16A817B81C40149830E942D1BC4
:104A10002A813B812F5F3F4F4981841741F08A8172
:104A20009B818017910719F0DB82CA820CC09FEF2F
:104A3000E91AF90A1601EFEF2E1A3E0A60167106FE
:104A400011F43B832A833901CA80DB80D3CF9601DE
:104A5000A101B401C5010E94E41C08C04E145F040A
:104A6000B4F360EA71E0C5010E94CF1CC5010F904C
:104A70000F900F90DF91CF911F910F91FF90EF90CA
:104A8000DF90CF90BF90AF909F908F907F906F906E
:104A90005F904F903F902F900895CF9361E08DE00D
:104AA0000E945E13C3E061E08DE00E942E1362E37A
:104AB00070E080E090E00E949A1360E08DE00E9438
:104AC0002E1362E370E080E090E00E949A13C150E0
:104AD00051F7CF91089580EF92E00E9425128091C6
:104AE000CC029091CD020E9491158091CC029091C0
:104AF000CD020E947814E091CC02F091CD02158A8B
:104B000081E0848B0E94D413DC01CB0180529C464F
:104B1000AB4FBF4F80930B0190930C01A0930D01FD
:104B2000B0930E010E94D413DC01CB0180549B4250
:104B3000AE4FBF4F8093070190930801A0930901E6
:104B4000B0930A011092C8020895CF92DF92EF92BB
:104B5000FF921F93CF93DF93CDB7DEB7AE970FB61B
:104B6000F894DEBF0FBECDBF9091D6029111B3C0B5
:104B70009091D702923018F0803309F0ACC0182F12
:104B80009F5F9093D70262E071E0CE0101960E9490
:104B9000CF1C6DEB73E0CE0101960E94E91BBC01B6
:104BA000CE0189960E94C61CCE0101960E948B1CE4
:104BB00062E071E0CE0101960E94CF1C67EB73E0CA
:104BC000CE0101960E94E91BBC01CE0183960E9492
:104BD000C61CCE0101960E948B1C4EE050E0BE0127
:104BE000615F7F4FCE0189960E94171A4EE050E018
:104BF000BE016F5F7F4FCE0183960E94171A10335C
:104C000049F0113369F490E4C92E9CE9D92EE12CC6
:104C1000F12C06C080E2C82E8EE4D82EE12CF12CB7
:104C2000BE01615F7F4F8091CA029091CB020E94CA
:104C3000A7188091A902823049F5C701B6010E94E8
:104C40009A136BE572E08091CA029091CB020E94A8
:104C5000021860ED77E080E090E00E949A13BE01B8
:104C60006F5F7F4F8091CA029091CB020E94A7187C
:104C7000113061F0C701B6010E949A136BE572E032
:104C80008091CA029091CB020E940218E091CA0260
:104C9000F091CB026281738180ED97E0A0E0B0E0FB
:104CA000FB0184839583A683B783CE014D960E9432
:104CB0002A1DCE014D960E948B1C8091CE0281113F
:104CC00002C00E946B25CE0183960E948B1CCE01F0
:104CD00089960E948B1CAE960FB6F894DEBF0FBE6D
:104CE000CDBFDF91CF911F91FF90EF90DF90CF90DC
:104CF000089520913404309135042817390771F450
:104D0000809132042091330490E0805C9F4F821B9D
:104D1000910960E470E00E94CD37089580E090E052
:104D20000895209134043091350428173907B9F4D7
:104D30009091330480913204981789F0E091330404
:104D4000F0E0EE50FC4F80812091330430E02F5F83
:104D50003F4F2F7333272093330490E008958FEF54
:104D60009FEF089585ED8093BC008091BC0084FD89
:104D7000FCCF10927F0408954091C504262F30E0A7
:104D8000240F311D21323105DCF420917F042430C1
:104D9000C9F4FC0180E090E0861758F43091C50416
:104DA0002191DC01AD55BB4FA30FB11D2C93019692
:104DB000F3CF8091C504680F6093C50480E0089527
:104DC00081E0089582E008950895E0918104809142
:104DD0008004E81730F4F0E0EE57FB4F808190E05C
:104DE00008958FEF9FEF0895909181048091800442
:104DF000981750F4E92FF0E0EE57FB4F208130E098
:104E00009F5F9093810402C02FEF3FEFC901089587
:104E10008091800490E020918104821B9109089583
:104E2000CF92DF92EF92FF920F931F93CF93DF9376
:104E30007C01262F972F8A0180913604882391F0D8
:104E4000C62FD72F6E01C40ED51ECC15DD0571F00F
:104E50006991D701ED91FC910190F081E02DC7019E
:104E60000995F3CF642F822F0E94BC26C801DF91E1
:104E7000CF911F910F91FF90EF90DF90CF90089509
:104E8000CF93DF931F92CDB7DEB7698320913604AD
:104E90002223D1F020915704203240F021E030E06D
:104EA000FC013383228380E090E015C08091580498
:104EB000E82FF0E0E95CFB4F998190838F5F80934E
:104EC00058048093570405C061E0CE0101960E940A
:104ED000BC2681E090E00F90DF91CF910895089576
:104EE00080E090E00895CF93DF93EC019A01AB014D
:104EF0001B8E1A8E198E188E1F8A1E8A60E079E02A
:104F00008DE390E00E940338F9012430310518F058
:104F1000C901039702C081E090E09D8F8C8F6C8562
:104F2000663108F069C0C90196958795843191056D
:104F300010F0439702C081E090E09F8B8E8B3697F4
:104F400018F0C901059702C081E090E0998F888F21
:104F5000C901880F991F280F391F36952795369557
:104F600027952D30310518F02C50310902C021E071
:104F700030E03B8F2A8F90916800683050F021E03C
:104F80006E3008F420E081E001C0880F2A95EAF72E
:104F900001C084E0892B809368009C85983038F0AC
:104FA0009E3040F0963148F020E030E008C02DE619
:104FB00030E005C02BE630E002C02CE630E03C8B50
:104FC0002B8B983030F481E001C0880F9A95EAF776
:104FD0000EC0292F30E09E3018F42850310902C04D
:104FE0002E50310981E001C0880F2A95EAF78D8B98
:104FF0008C8D9D8D0197F1F78A8D9B8D892B09F101
:10500000E0913404F0913504EC17FD07D1F03097AE
:1050100039F0A389B4899C918589809589238C93E3
:105020008E8D8E7F8E8F1092320410923304D09327
:105030003504C0933404EB89FC8990818D89892BD8
:105040008083DF91CF9108951F920F920FB60F9238
:1050500011242F933F934F935F936F937F938F937D
:105060009F93AF93BF93EF93FF93E0913404F0913C
:105070003504309709F451C0968DA685B78585858E
:1050800091FF04C09C91892329F447C09C918923F6
:1050900009F043C0A389B4899C91858980958923AF
:1050A0008C93868997890197F1F7608D718DA6851C
:1050B000B785558538E020E0CB010197F1F7822FC5
:1050C00090E095958795282F4C91452309F020680D
:1050D000315091F7868D81FD20958091320490E0CA
:1050E00001968F73992730913304381749F0A091B6
:1050F0003204B0E0AE50BC4F2C938093320403C016
:10510000868D8160868F828D938D0197F1F7A389BB
:10511000B4899C918589892B8C93FF91EF91BF91E4
:10512000AF919F918F917F916F915F914F913F913F
:105130002F910F900FBE0F901F9018951F920F92F6
:105140000FB60F9211242F933F934F935F936F935A
:105150007F938F939F93AF93BF93EF93FF93809130
:10516000B900887F803609F49CC068F5883209F45C
:105170005BC090F4803109F454C038F4882309F4FA
:10518000F6C0883009F44DC0F6C0883109F44CC02F
:10519000803209F45DC0EFC0803409F468C048F47F
:1051A000803309F455C0883309F0E5C080937D044D
:1051B000D8C0803509F44FC0883509F45DC0883403
:1051C00009F0D9C0D6C0883909F4C7C0A8F4883717
:1051D00009F467C038F4883609F463C0803709F4ED
:1051E00060C0C9C0883809F4B8C0803909F45FC00C
:1051F000803809F0C0C05BC0803B09F486C038F439
:10520000803A09F466C0883A09F47FC0B4C0803C93
:1052100009F4A7C0883C09F4A4C0883B09F48AC0FB
:10522000AAC080917A0410C090917C0480917B0484
:10523000981770F5E0917C0481E08E0F80937C04D8
:10524000F0E0E75AFB4F80818093BB0085EC86C07D
:1052500080937D048EC0E0917C0481E08E0F80936A
:105260007C048091BB00F0E0E75AFB4F8083909173
:105270007C0480917B046EC0E0917C0481E08E0F01
:1052800080937C048091BB00F0E0E75AFB4F808361
:1052900080917E0481116DC081E08093790484EA5D
:1052A00061C083E080937F041092E904CFCF8091A6
:1052B000E904803208F051C0E091E90481E08E0FEA
:1052C0008093E9048091BB00F0E0E753FB4F8083BB
:1052D000BDCF85EC8093BC0010927F048091E904DF
:1052E000803230F4E091E904F0E0E753FB4F1082A4
:1052F0006091E90470E0E091C704F091C80489EC82
:1053000094E009951092E90436C084E080937F040C
:105310001092C6041092C504E091C304F091C40435
:1053200009958091C504811105C081E08093C50471
:105330001092A304E091C60481E08E0F8093C6040E
:10534000F0E0ED55FB4F80818093BB009091C60447
:105350008091C504981708F479CF85E88093BC0044
:105360000AC085EC8093BC0010927F0404C01092A8
:105370007D040E94B226FF91EF91BF91AF919F9162
:105380008F917F916F915F914F913F912F910F90EE
:105390000FBE0F901F90189588EC80937C00809131
:1053A0007A00806880937A0064E170E080E090E0A9
:1053B0000E949A1380917A00806480937A00809191
:1053C0007A0086FDFCCF6091780070917900809121
:1053D000000190910101681B790B80E090E00E9430
:1053E000B63526EF38E24CE95FE30E942537089591
:1053F000EF92FF920F931F93CF938C01FC01E480F7
:10540000F580C0E06C2F70E06E157F0568F4C80170
:105410000E942D1B282F880F330B205331092A306F
:10542000310520F0CF5FEECF80E001C081E0CF9169
:105430001F910F91FF90EF900895CF93DF93CDB719
:10544000DEB72C970FB6F894DEBF0FBECDBF64EF6A
:1054500074E0CE0101960E94BD1C40E050E0BE0108
:105460006F5F7F4FCE0107960E942F21BE01695FBB
:105470007F4F8091CC029091CD020E947F17CE0188
:1054800007960E948B1CCE0101960E948B1C68ED32
:1054900072E0CE0101960E94BD1CBE016F5F7F4F7E
:1054A0008091CC029091CD020E947F17CE0101968F
:1054B0000E948B1C2C960FB6F894DEBF0FBECDBF9A
:1054C000DF91CF910895CF93DF93CDB7DEB7EE97FD
:1054D0000FB6F894DEBF0FBECDBF789484B582605E
:1054E00084BD84B5816084BD85B5826085BD85B588
:1054F000816085BD80916E00816080936E00109206
:105500008100809181008260809381008091810080
:105510008160809381008091800081608093800011
:105520008091B10084608093B1008091B00081606F
:105530008093B00080917A00846080937A0080919B
:105540007A00826080937A0080917A0081608093F3
:105550007A0080917A00806880937A001092C1006E
:1055600085E090E00E943C387C01DC0114961C929E
:105570008FE190E00E943C388C01FC011382128282
:1055800088EE93E0A0E0B0E084839583A683B783A0
:105590008EE291E091838083178A168A118E108E95
:1055A000138E128E158E148E668D6E7F6D7F668FB4
:1055B0006695617081E0682788E00E942E1361E0A3
:1055C00088E00E945E13E9ECF3E0E491D801509684
:1055D000EC93E5EBF3E0E491F0E0EE0FFF1FE9530D
:1055E000FD4F85919491F801928B818B60E087E06B
:1055F0000E945E13D8015E968C9181FD04C061E02B
:1056000087E00E942E1387E0F8018487E8ECF3E03E
:10561000E491D8011D96EC93E4EBF3E0E491F0E023
:10562000EE0FFF1FED55FC4F85919491F801978780
:105630008687D70113961C930E931297F092CB0294
:10564000E092CA0240E05BE460E070E0C8010E94C2
:105650007327F701118261E08DE00E945E1385EFF0
:1056600091E2909311018093100180916900836011
:1056700080936900E89A86E190E00E943C388C01B2
:1056800060EA71E006960E94CF1CD80111961C9228
:105690001E928AE014968C93149786E015968C934C
:1056A000159780EF92E013969C938E93129780E06B
:1056B00096E9A0E0B0E0F80184879587A687B787D0
:1056C00080E895E2A0E0B0E0808B918BA28BB38B59
:1056D00061E08AE00E945E1361E0D80115968C912A
:1056E0000E945E131093CD020093CC02C8010E9469
:1056F0009115C090CC02D090CD027601B6E0EB0EB1
:10570000F11CC7010E94B41AC7010E949F198E01A3
:105710000F5F1F4F882309F4CDC0C6010E94A51456
:1057200060EA71E0C7010E94241C67E971E0C801CA
:105730000E94CF1CB801C6010E94F414C8010E9447
:105740008B1C60ED77E080E090E00E949A13C60128
:105750000E94DE14892B09F4A3C0F60160817181D7
:105760006115710511F462817381CE010D960E945D
:105770002A1D61ED72E0C8010E94BD1C4D815E8151
:1057800089899A898417950778F08D859E85009779
:1057900059F069817A816115710531F00E945C3A96
:1057A000BB24B394892B09F0B12CC8010E948B1C37
:1057B000BB2009F46CC029893A8946E050E0BE015B
:1057C000635F7F4FC8010E94E41CE016F10621F0E0
:1057D000B801C7010E94521CC8010E948B1CB7016E
:1057E000CE0107960E94C61C2B843C84B1E02B1A84
:1057F0003108412C512C66246A94762C40E050E00C
:10580000812C912C5201241435045CF181149104F3
:1058100001F5B501CE0107964DAF5EAF0E942D1B7D
:1058200095012F5F3F4F4DAD5EAD8D3029F0A21435
:10583000B30411F053010AC0A3014F5F5F4F42143C
:10584000530409F4590188248394912C29013501CA
:10585000D9CF9301BE01695F7F4FC8010E94E41C4C
:1058600008C08A948928A9F360EA71E0C8010E94FF
:10587000CF1CE016F10621F0B801C7010E94521CAE
:10588000C8010E948B1CCE0107960E948B1CB70199
:10589000C8010E94C61CCE010D960E948B1C04C03C
:1058A000B701C8010E94C61CC8010E948B1CC6011A
:1058B0000E947814B701C8010E94C61CB80189EC87
:1058C00093E00E94521CC8010E948B1C8091CC0264
:1058D0009091CD020E94781461E080E090E00E94F7
:1058E000E03681E090E00E943C386C014BE050E0F3
:1058F00067EB72E081E090E00E94BF2067EB72E00E
:10590000C8010E94CF1CB8018DEB93E00E94521C8D
:10591000C8010E948B1C4BE050E06CEA72E086E309
:1059200090E00E94BF206CEA72E0C8010E94CF1C88
:10593000B80187EB93E00E94521CC8010E948B1CA7
:1059400042E050E06AEA72E084E390E00E94BF2007
:105950008AEA92E00E9401358093A90242E050E079
:1059600067EA72E08EE090E00E94BF2087EA92E052
:105970000E9401358093C30242E050E065EA72E084
:1059800080E390E00E94BF2085EA92E00E9401350A
:10599000F82E8093CE0242E050E068ED72E083E1A1
:1059A00090E00E94BF2088ED92E00E940135809334
:1059B000C90242E050E063EA72E08CE090E00E94AD
:1059C000BF2083EA92E00E9401358093CF0243E03A
:1059D00050E060EA72E080E190E00E94BF2080EA3F
:1059E00092E00E9401358093C2024DE050E063E9ED
:1059F00072E085E190E00E94BF2063E972E0C80197
:105A00000E94CF1CB80185EA93E00E94521CC80195
:105A10000E948B1C4FE050E064E872E081E290E06D
:105A20000E94BF2064E872E0C8010E94CF1CB80148
:105A30008FE993E00E94521CC8010E948B1C49E12F
:105A400050E06BE672E083E490E00E94BF206BE6DA
:105A500072E0C8010E94CF1CB80189E993E00E945E
:105A6000521CC8010E948B1C89E993E00E94B41A61
:105A700045E050E066E672E08CE590E00E94BF20D1
:105A800086E692E00E940135909301018093000127
:105A900042E050E064E672E08EE590E00E94BF20B4
:105AA00084E692E00E94013580930601C114D1047E
:105AB00019F0C6010E94D138FF2069F110920F0140
:105AC0006FE073E0CE0107960E94BD1C40E050E0FD
:105AD000BE01695F7F4FC8010E942F21B8018091EC
